:020000040800F2
:10000000000A002045010008611100086311000882
:10001000671100086B1100086F1100080000000054
:100020000000000000000000000000007311000844
:100030007511000800000000771100087911000810
:100040005F0100085F0100085F0100085F01000810
:100050005F0100085F0100085F0100085F01000800
:100060005F0100085F0100085F0100085F010008F0
:100070005F0100085F0100085F0100085F010008E0
:100080005F0100085F0100085F0100085F010008D0
:100090005F0100085F0100085F0100085F010008C0
:1000A0005F0100085F0100085F0100085F010008B0
:1000B0005F0100085F0100085F0100085F010008A0
:1000C0005F0100085F0100085F0100085F01000890
:1000D0005F010008811100085F010008D5110008C8
:1000E0005F0100085F0100085F0100085F01000870
:1000F0005F0100085F0100085F0100085F01000860
:100100005F0100085F0100085F0100085F0100084F
:100110005F0100085F0100085F0100085F0100083F
:100120005F0100085F0100085F0100085F0100082F
:10013000DFF80CD001F0B8FB00480047AF0F000813
:10014000000A00200648804706480047FEE7FEE711
:10015000FEE7FEE7FEE7FEE7FEE7FEE7FEE7FEE777
:1001600047020008310100080CB500200190009002
:100170006C48006840F480306A49086000BF6948F4
:10018000006800F4003000900198401C0190009835
:1001900018B90198B0F5A06FF1D16248006800F479
:1001A000003010B10120009001E000200090009884
:1001B000012843D15C48006840F010005A490860AB
:1001C0000846006820F0030008600846006840F018
:1001D0000200086053484068524948600846406839
:1001E00048600846406840F48060486008464068BF
:1001F00020F47C1048600846406840F4E8104860ED
:100200000846006840F08070086000BF45480068FC
:1002100000F000700028F9D04248406820F0030048
:10022000404948600846406840F00200486000BF0E
:100230003C48406800F00C000828F9D10CBD10B50E
:10024000FFF792FF10BD10B53648006840F001007E
:1002500034490860084640683449084031494860DC
:1002600008460068324908402E4908600846006880
:1002700020F4802008600846406820F4FE004860B2
:100280004FF41F008860FFF7DAFF4FF00060294944
:10029000086010BD10B5002100200022214B5B68D2
:1002A00003F00C0121B1042906D0082928D107E068
:1002B000214B224C236027E01F4B204C236023E07E
:1002C000184B5B6803F47010164B5B6803F48032C4
:1002D000022303EB904022B9194B4343174C236090
:1002E0000DE0104B5B6803F4003323B1144B434320
:1002F000124C236003E0104B4343104C236003E097
:100300000D4B0E4C236000BF00BF064B5B68C3F370
:1003100003130C4CE15C094B1B68CB40074C23607A
:1003200010BD000000100240002002400000FFF855
:10033000FFFFF6FE08ED00E000127A00000000204A
:1003400000093D000400002031490143314A116099
:10035000704770B5002100230F22C47804B32D4CE0
:10036000246804F4E064C4F5E064210AC1F10403E4
:10037000CA40447804FA03F1847814402143090107
:10038000254C0678A155047804F01F050124AC40E3
:1003900005786D11AD0005F1E025C5F8004109E0D3
:1003A000047804F01F050124AC401C4D067876113A
:1003B00045F8264070BD1A4A0A400243154B1B1FE0
:1003C0001A60704739B1134A121D12680243114B6B
:1003D0001B1D1A6006E00F4A121D126882430D4B66
:1003E0001B1D1A607047042808D14FF0E0210969ED
:1003F00041F004014FF0E022116107E04FF0E021ED
:10040000096921F004014FF0E022116170470000FA
:100410000000FA050CED00E000E400E080E100E0FF
:1004200080FFFF1F10B50446CC48844208D101214B
:10043000042000F02DFB0021042000F029FB46E001
:10044000C748844208D10121082000F021FB002187
:10045000082000F01DFB3AE0C248844208D1012187
:10046000102000F015FB0021102000F011FB2EE001
:10047000BD48844208D10121202000F009FB002161
:10048000202000F005FB22E0B848844208D1012179
:10049000402000F0FDFA0021402000F0F9FA16E0BB
:1004A000B348844208D10121802000F0F1FA0021F4
:1004B000802000F0EDFA0AE0AE48844207D1012125
:1004C000801500F0E5FA0021A01500F0E1FA10BD5A
:1004D00010B50121084600F0DBFA0021012000F0F0
:1004E000D7FA10BD2DE9F041024600250026002074
:1004F00000230024002791F803C00CF00F0591F8A9
:1005000003C00CF0100CBCF1000F03D091F802C036
:100510004CEA050591F800C0BCF1000F31D0146819
:1005200000202BE04FF0010C0CFA00F3B1F800C0F2
:100530000CEA03069E4220D183004FF00F0C0CFA08
:1005400003F7BC4305FA03FC4CEA040491F803C02A
:10055000BCF1280F06D14FF0010C0CFA00FCC2F8D8
:1005600014C00AE091F803C0BCF1480F05D14FF068
:10057000010C0CFA00FCC2F810C0401C0828D1D3B2
:100580001460B1F800C0BCF1FF0F34DD54680020E6
:100590002EE000F1080C4FF0010808FA0CF3B1F856
:1005A00000C00CEA03069E4221D183004FF00F0CDD
:1005B0000CFA03F7BC4305FA03FC4CEA040491F877
:1005C00003C0BCF1280F05D100F1080C08FA0CF8A3
:1005D000C2F8148091F803C0BCF1480F07D100F1B4
:1005E000080C4FF0010808FA0CF8C2F81080401C03
:1005F0000828CED35460BDE8F0814FF6FF7101802A
:10060000022181700421C170704702460020936866
:100610000B400BB1012000E00020704701468868C4
:1006200080B2704702460020D3680B400BB1012016
:1006300000E0002070470146C86880B27047016141
:100640007047416170470AB1016100E04161704744
:10065000C16070474FF480320A43826181618261D8
:1006600082698269704702460020434B18684FF642
:100670008073184040EA021008433F4B18607047EF
:100680003E49C8617047F0B50A46002300240021A6
:10069000002500F00046B6F1004F02D1364EF16958
:1006A00001E0354E7168C0F3034583B200F4401693
:1006B000B6F5401F08D121F070612F4E766826F004
:1006C00070662D4F7E6012E000F48016B6F5801F34
:1006D00006D1032606FA05F4A14341F0706106E055
:1006E000460D360103FA06F6B14341F0706122B1BE
:1006F000460D360103FA06F6314300F00046B6F126
:10070000004F02D11C4EF16101E01B4E7160F0BD43
:1007100030B500228B071C0F0F2303FA04F2164B8F
:1007200008338C1053F824309343134C08348D1045
:1007300044F8253023468C1053F824308C07240FBE
:1007400000FA04F423430C4C08348D1044F825308F
:1007500030BD0A49DC3108607047000000080140E4
:10076000000C01400010014000140140001801403D
:10077000001C014000200140000001400000204218
:10078000DF48006840F00100DD4908600846406825
:10079000DC490840DA49486008460068DA49084000
:1007A000D74908600846006820F4802008600846A1
:1007B000406820F4FE0048604FF41F0088607047D6
:1007C000CF49096821F48031CD4A1160114609688A
:1007D00021F480211160B0F5803F03D0B0F5802F67
:1007E0000ED106E0C649096841F48031C44A11605F
:1007F00007E0C349096841F4A021C14A116000E043
:1008000000BF00BF704710B5014600220023002042
:100810004A11012A02D1BA4C236806E0022A02D109
:10082000B74C236A01E0B64C636A01F01F02012451
:1008300094401C400CB1012000E0002010BD38B5F0
:10084000002000900024002500BF3120FFF7DBFFCF
:1008500005460098401C00900098B0F5A06F01D0AC
:10086000002DF2D03120FFF7CEFF08B1012400E0C7
:100870000024204638BD01460020A14A106820F01F
:10088000F80040EAC10010607047A0490860704756
:10089000024600209A4B586820F47C1042EA01037B
:1008A0001843974B5860704798490866704701464F
:1008B0000020934A506820F00300084350607047BE
:1008C0008F48406800F00C007047014600208C4AB9
:1008D000506820F0F0000843506070470146002047
:1008E000874A506820F4E060084350607047014632
:1008F0000020834A506820F4605040EAC1005060F4
:10090000704729B17E4A527A02437D4B5A7204E005
:100910007B4A527A82437A4B5A7270477B49D8316C
:100920000860704701460020754A506820F4404036
:100930000843506070470021714A20321170704A9C
:1009400082F82010012802D004280AD104E00121F5
:100950006B4A2032117005E00521694A203211707E
:1009600000E000BF00BF70476949086070476449F4
:10097000096A0143624A1162704765494439086057
:10098000704730B500210022002400235C4D6D68C3
:1009900005F00C0121B1042905D0082923D105E077
:1009A0005C4D056022E05B4D05601FE0544D6D68B5
:1009B00005F47012524D6D6805F48034022505EB84
:1009C00092421CB9544D554305600BE04C4D6D6887
:1009D00005F400351DB1504D5543056002E04D4D05
:1009E0005543056002E04B4D056000BF00BF444D1C
:1009F0006D6805F0F0010909484D6B5C0568DD4044
:100A000045603F4D6D6805F4E061090A434D6B5C3C
:100A10004568DD4085603A4D6D6805F46051C90A4E
:100A20003E4D6B5C4568DD40C560354D6D6805F435
:100A30004041890B3A4D6B5CC568B5FBF3F5056128
:100A400030BD29B12E4A526902432D4B5A6104E050
:100A50002B4A526982432A4B5A61704729B1284A6E
:100A600092690243264B9A6104E0254A92698243C7
:100A7000234B9A61704729B1214AD2690243204B26
:100A8000DA6104E01E4AD26982431D4BDA61704785
:100A900029B11B4AD2680243194BDA6004E0184AB4
:100AA000D2688243164BDA60704729B1144A126942
:100AB0000243134B1A6104E0114A12698243104B3E
:100AC0001A61704712494039086070470F49C8647D
:100AD00070470B49C87170470948406A40F0807000
:100AE00007494862704701460020054A92680A405B
:100AF0000AB1012000E00020704701498872704768
:100B0000001002400000FFF8FFFFF6FE0000424226
:100B10008004424200127A0000093D0014000020C7
:100B20002400002010B50446FB48844209D101216D
:100B30008803FFF7ADFF00214FF48040FFF7A8FFC7
:100B400032E0F648844209D101214804FFF7ADFFA5
:100B500000214FF40030FFF7A8FF25E0F048844261
:100B600009D101218804FFF7A0FF00214FF4802064
:100B7000FFF79BFF18E0EB48844209D10121C8042C
:100B8000FFF793FF00214FF40020FFF78EFF0BE0EB
:100B9000E548844208D101210805FFF786FF0021BE
:100BA0004FF48010FFF781FF10BD2DE9F04786B0AC
:100BB00005460E460024A24600BFA1460027B08984
:100BC00000B100BF2F462C8A4CF6FF700440F0881D
:100BD00004432C82AC894EF6F3100440B08831896E
:100BE0000843718908430443AC81AC8A4FF6FF4047
:100BF0000440B0890443AC8201A8FFF7C2FEC64896
:100C0000874202D1DDF810A001E0DDF80CA0A88930
:100C100000F4004040B10AEBCA0000EB0A10316852
:100C20004900B0FBF1F807E00AEBCA0000EB0A103C
:100C300031688900B0FBF1F86420B8FBF0F00401E2
:100C40002009642101FB1089A88900F4004040B10B
:100C5000322000EBC900B0FBF1F000F007000443C4
:100C600008E0322000EB09106421B0FBF1F000F045
:100C70000F0004432C8106B0BDE8F0874FF41651F5
:100C8000016000218180C18001810C21418100210E
:100C90008181704710B502460020108A4FF2FF0391
:100CA00018400B884C8823438C882343CC882343EB
:100CB0001843108210BD0021018041808180C180D5
:100CC000704721B1828942F40052828104E0828916
:100CD0004DF6FF731A4082817047F0B50346002439
:100CE00000260025002040F66A17B94200D100BF57
:100CF0001846C1F3421401F01F06012707FA06F552
:100D0000012C01D10C3004E0022C01D1103000E0A4
:100D100014301AB107682F43076002E00768AF4339
:100D20000760F0BD1AB1838A0B43838202E0838A95
:100D30008B4383827047028A4FF6F0731A40028217
:100D4000028A0A430282704782894FF2FF731A4077
:100D5000828182890A438281704721B1828942F06F
:100D60000202828104E082894FF6FD731A4082817B
:100D70007047028A4FF6DF731A400282028A0A43E2
:100D80000282704721B1028A42F48042028204E06A
:100D9000028A4BF6FF731A4002827047C1F30802C1
:100DA0008280704701468888C0F3080070478189B7
:100DB00041F0010181817047028BD2B20283028B24
:100DC00042EA012202837047028B02F47F420283CF
:100DD000028B0A430283704721B1828A42F02002CB
:100DE000828204E0828A4FF6DF731A408282704763
:100DF00021B1828A42F01002828204E0828A4FF698
:100E0000EF731A408282704721B1828A42F0080251
:100E1000828204E0828A4FF6F7731A40828270471A
:100E200021B1828942F40042828103E08289C2F3C7
:100E30000E028281704721B1828A42F4006282826E
:100E400004E0828A4FF2FF731A4082827047828ADE
:100E50004FF6FB731A408282828A0A43828270476D
:100E600021B1828A42F00202828204E0828A4FF635
:100E7000FD731A408282704702460020B1F5007F60
:100E800000D100BF13880B400BB1012000E000200F
:100E9000704701F40072B2F5007F00D100BFCA4371
:100EA0000280704770B50246002400230025002010
:100EB00040F66A16B14200D100BFC1F3421501F0FD
:100EC0001F03012606FA03F3012D02D19689334050
:100ED00006E0022D02D1168A334001E0968A3340A3
:100EE0000C12012606FA04F41688344013B10CB132
:100EF000012000E0002070BD10B50022002340F664
:100F00006A14A14200D100BF0A1201249440A3B286
:100F1000DC43048010BD0000003801400044004064
:100F200000480040004C00400050004038B50446E6
:100F3000E41C55A0234656A256A10090594800F043
:100F4000D5FC584A58A15C4800F0D0FC5BA000F0EA
:100F5000BDFC38BD70B5054600240BE000F059FC1F
:100F6000284600F0ADFA58A1584800F075FC00B1D1
:100F700002E0641C032CF1DB00BF70BD10B500F073
:100F8000F2F953A0FFF7E6FF53A0FFF7E3FF55A0E8
:100F9000FFF7E0FF5AA0FFF7DDFF4748FFF7DAFF52
:100FA0005AA0FFF7D7FF5DA0FFF7D4FF10BD9AB09E
:100FB000642101A800F045FC00F048F900F00CFAAB
:100FC00000F0C3FA00F09FFB01205749087057A1B9
:100FD000584800F08BFC56E053480078012820D197
:100FE000544800783A2817D152484078462813D1FF
:100FF00050488078572809D100214F480078401E7A
:101000004C4A11541046FFF791FF05E0494880789B
:10101000592801D1FFF7B2FF00204349087000F0C2
:101020004FFB4648007801282DD1284800783A28FF
:1010300024D126484078462820D1244880782B287F
:1010400014D1002405E03E480078401C3C4908705B
:10105000641C052CF7DB3A4802783AA101A800F09D
:1010600045FC01A93C4800F0A1FB07E01748807847
:10107000512803D110213948FFF7E3FA00F0C9FBEA
:1010800000202E490870A7E73830383000000000F3
:1010900054435000222573222C222573222C2573C1
:1010A000000000009C00002041542B434950535441
:1010B0004152543D257300002800002069702069CA
:1010C00073206F6B210A00004F4B000000020020CC
:1010D00041542B525354000041542B43574D4F441D
:1010E000453D310041542B43574A41503D22413345
:1010F0003034222C2277696C6466697265220000A4
:1011000041542B4349504D55583D300041542B43D9
:1011100049504D4F44453D310000000041542B43A0
:10112000495053454E4400008D0000203A46592353
:101130000000000000010020940000208E0000202C
:101140008C0000204D6F76696E67202564206973DE
:10115000206F6B210A000000004800400008014099
:10116000704700BFFEE700BFFEE700BFFEE700BF1D
:10117000FEE770477047704710B500F04CF910BD9E
:1011800010B540F225512948FFF78CFE08B32748D7
:10119000FFF708FEC4B226480078FF280FDA25487A
:1011A0002349097844540021024621480078401C14
:1011B00011541F480078401C1D49087004E01E4867
:1011C0000078401E1B490C54232C02D101201B49DE
:1011D000087010BD10B540F225511948FFF762FEA6
:1011E00018B31748FFF7DEFDC4B21348007840F289
:1011F000FF3188420FDA13480F490978445400211F
:1012000002460D480078401C11540B480078401CE1
:101210000949087004E008480078401E09490C5448
:10122000232C02D101200849087010BD003801406C
:101230009400002000010020950000208D00002077
:1012400000480040000200208E00002008B5012167
:101250000820FFF703FC01210420FFF7FFFB2020FB
:10126000ADF8000010208DF8030003208DF8020077
:1012700069464348FFF736F91020ADF8000069468B
:101280003F48FFF72FF90220ADF8000069463C48BF
:10129000FFF728F90420ADF8000069463948FFF748
:1012A00021F90820ADF8000069463648FFF71AF921
:1012B0001020ADF8000069463248FFF713F92021ED
:1012C0002F48FFF7BCF910212D48FFF7B8F902218C
:1012D0002B48FFF7B4F904212A48FFF7B0F9082199
:1012E0002848FFF7ACF910212648FFF7AAF908BDF6
:1012F0002022234B14331A60704710B51021214867
:10130000FFF79DF904211F48FFF79BF908211D48AD
:10131000FFF797F91C4800F06CF804211948FFF713
:1013200090F908211748FFF78AF9174800F061F88B
:1013300004211448FFF783F908211248FFF77FF9C9
:10134000114800F056F804210E48FFF778F90821FB
:101350000C48FFF776F90C4800F04BF810210948CB
:10136000FFF76FF910BD10B520210548FFF769F9A7
:10137000054800F03EF820210148FFF760F910BD54
:10138000000C01400008014020A1070030B50146D3
:10139000B1F1807F01D3012030BD21F07F40401E9C
:1013A0004FF0E022506150170F22002807DA130790
:1013B0001D0E3E4B00F00F04241F1D5503E01307C4
:1013C0001C0E3B4B1C5400BF00204FF0E0229061EC
:1013D000072010610020DFE710B536480068364965
:1013E000B0FBF1F42046FFF7D1FF08B100BFFEE7E4
:1013F00010BD01B53149009808604FF0E020006948
:1014000040F001004FF0E021086100BF2B48006868
:101410000028FBD108BD2948006820B12748006892
:10142000401E26490860704731B5224800682249AD
:10143000B0FBF1F52846FFF7A9FF002408E000BF44
:101440004FF0E020006900F480300028F8D0641CE0
:1014500000988442F3D34FF0E020006920F00100AF
:101460004FF0E021086138BD31B5124800684FF4F3
:101470007A71B0FBF1F52846FFF788FF002408E0F9
:1014800000BF4FF0E020006900F480300028F8D061
:10149000641C00988442F3D34FF0E020006920F0F0
:1014A00001004FF0E021086138BD000018ED00E0B8
:1014B00000E400E00000002040420F009000002007
:1014C00010B504460BE02178134800F060F921784C
:1014D000124800F07EF80520FFF78BFF641C20788F
:1014E0000028F0D10520FFF784FF0D210A4800F005
:1014F0004EF90D21094800F06CF80520FFF779FF3F
:101500000A21054800F043F90A21044800F061F877
:101510000348FFF76EFF10BD00480040003801404F
:1015200080841E0008B54FF4A060FEF70DFF252053
:101530008DF8000001208DF801008DF802008DF873
:1015400003006846FEF705FF08BD00B585B0012120
:101550000420FFF783FA01218803FFF77FFA4FF495
:101560000070ADF8100018208DF8130003208DF8DE
:10157000120004A95648FEF7B5FF4FF48060ADF89D
:10158000100004208DF8130004A95148FEF7AAFFAB
:101590004FF4E13000900020ADF80400ADF80600F3
:1015A000ADF80800ADF80C000C20ADF80A00694653
:1015B0004848FFF7FAFAFFF7B5FF012240F225513C
:1015C0004448FFF78AFB01214248FFF77AFB05B048
:1015D00000BD70B504460D4629462046FFF7DEFBE8
:1015E00000BF80212046FFF747FC0028F9D070BDDE
:1015F0002DE9F04107460D461646002405E0295D19
:101600003846FFF7E6FF601CC4B2B442F7DB00BF08
:1016100040213846FFF730FC0028F9D0BDE8F081C2
:1016200070B506460C46002500BF615D3046FFF7E9
:10163000D0FF6D1C605D0028F7D100BF402130460F
:10164000FFF71AFC0028F9D070BD2DE9F0410546DE
:101650000C46260AE7B231462846FFF79FFB00BF3B
:1016600080212846FFF708FC0028F9D03946284693
:10167000FFF794FB00BF80212846FFF7FDFB002801
:10168000F9D0BDE8F08170B504460D46E1B21148CD
:10169000FFF784FB00BF80210E48FFF7EDFB002819
:1016A000F9D0204670BD10B5044600BF202109487E
:1016B000FFF7E2FB0028F9D00648FFF773FB10BDE7
:1016C0000020054908700549034A1278885470477C
:1016D0000008014000380140940000200001002073
:1016E00008B54FF4A060FEF72FFE27208DF800000C
:1016F00001208DF801008DF802008DF80300684686
:10170000FEF727FE08BD00B585B001210820FFF7D0
:10171000A5F901218804FFF7AEF94FF48060ADF818
:10172000100018208DF8130003208DF8120004A972
:101730003C48FEF7D7FE4FF40060ADF810000420DF
:101740008DF8130004A93748FEF7CCFE4FF4E130C2
:1017500000900020ADF80400ADF80600ADF80800D8
:10176000ADF80C000C20ADF80A0069462E48FFF7D2
:101770001CFAFFF7B5FF012240F225512A48FFF776
:10178000ACFA01212848FFF79CFA05B000BD70B5FE
:1017900004460D4629462046FFF700FB00BF802186
:1017A0002046FFF769FB0028F9D070BD70B50646EA
:1017B0000C46002500BF615D3046FFF7E8FF6D1C59
:1017C000605D0028F7D100BF40213046FFF754FB91
:1017D0000028F9D070BD2DE9F04105460C46260AD7
:1017E000E7B231462846FFF7D9FA00BF80212846E4
:1017F000FFF742FB0028F9D039462846FFF7CEFA1A
:1018000000BF80212846FFF737FB0028F9D0BDE84C
:10181000F0810020054908700549044A127888546F
:1018200070470000000C0140004800409500002077
:1018300000020020D2B201E000F8012B491EFBD2C9
:1018400070470022F6E710B513460A4604461946CB
:10185000FFF7F0FF204610BD30B505462A460B467F
:1018600012F8010B13F8014B08B1A042F8D01CB1DB
:10187000002802D06D1CF1E7284630BD30B50B467C
:10188000014600202022012409E021FA02F59D42B0
:1018900005D303FA02F5491B04FA02F52844151E84
:1018A000A2F10102F1DC30BD064C074D06E0E06814
:1018B00040F0010394E8070098471034AC42F6D397
:1018C000FEF73AFCF81A0008181B00080FB4054B85
:1018D00010B503A9044A029800F02CF810BC5DF87A
:1018E00014FB000087160008980000200FB4084B76
:1018F00010B504A902AA039800F01CF8044602A936
:10190000002000F0F3F8204610BC5DF814FB000046
:10191000ED1A000802E008C8121F08C1002AFAD117
:1019200070477047002001E001C1121F002AFBD15F
:10193000704700002DE9FF4F8BB09A460F460546D1
:10194000002606E025280BD052460D9990476D1CC5
:10195000761C28780028F5D10FB03046BDE8F08F0E
:101960000024A0460122604900E0044315F8013F2D
:10197000203B02FA03F00842F7D128782E2817D12D
:1019800015F8010F44F004042A280ED06FF02F023E
:101990002878A0F1300109290AD808EB880102EB68
:1019A000410100EB01086D1CF2E757F8048B6D1C38
:1019B000287869283ED006DC0028CDD063280BD0DB
:1019C000642804D136E0732810D075284BD05246D5
:1019D0000D999047761C85E017F8040B8DF80000F0
:1019E00000208DF80100E946012003E057F8049B30
:1019F0004FF0FF3061074FF0000401D40AE0641C8F
:101A000044450DDA8442FADB19F804100029F6D1B6
:101A100006E0641C8442FCDB19F804100029F8D1AC
:101A2000264404E019F8010B52460D999047641EB4
:101A3000F8D257E001CF4FF00A0B002802DA4042FB
:101A40002D2102E0210504D52B218DF82410012140
:101A500003E0E10705D02021F7E70DF12009089107
:101A60000CE00021F9E701CF4FF00A0BF9E75946E6
:101A7000FFF704FF01F1300209F8012D0028F6D12B
:101A8000ADEB090000F1200B600701D44FF0010815
:101A9000D84502DDA8EB0B0000E0002080460024C2
:101AA00006E009A85246005D0D999047641C761C1B
:101AB00008988442F5DB04E0302052460D999047A7
:101AC000761CB8F10001A8F10108F5DC05E019F871
:101AD000010B52460D999047761CBBF10001ABF10A
:101AE000010BF4DC6D1C34E7092801000A68531C63
:101AF0000B60107070470000181B000800000020E9
:101B00009C00000014190008B41B00089C00002071
:101B1000640900002419000800A24A040000000023
:101B2000000000000102030406070809000000008D
:101B3000010203040102030406070809020406085F
:101B400041542B43495053544152543D2254435025
:101B5000222C223139322E3136382E34332E37387A
:101B6000222C383038300000000000000000000057
:101B70000000000000000000000000000000000065
:101B80000000000000000000000000000000000055
:101B90000000000000000000000000000000000045
:101BA0000000000000000000000000000000000035
:041BB0000000000031
:0400000508000131BD
:00000001FF
