:020000040800F2
:10000000380B0020450100087D1200087F1200080F
:1000100083120008871200088B12000800000000FD
:100020000000000000000000000000008F12000827
:1000300091120008000000009312000895120008B9
:100040005F0100085F0100085F0100085F01000810
:100050005F0100085F0100085F0100085F01000800
:100060005F0100085F0100085F0100085F010008F0
:100070005F0100085F0100085F0100085F010008E0
:100080005F0100085F0100085F0100085F010008D0
:100090005F0100085F0100085F0100085F010008C0
:1000A0005F0100085F0100085F0100085F010008B0
:1000B0005F0100085F0100085F0100085F010008A0
:1000C0005F0100085F0100085F0100085F01000890
:1000D0005F0100089D1200085F010008F11200088E
:1000E000491300085F0100085F0100085F01000874
:1000F0005F0100085F0100085F0100085F01000860
:100100005F0100085F0100085F0100085F0100084F
:100110005F0100085F0100085F0100085F0100083F
:100120005F0100085F0100085F0100085F0100082F
:10013000DFF80CD001F0F4FE004800474910000839
:10014000380B00200648804706480047FEE7FEE7D8
:10015000FEE7FEE7FEE7FEE7FEE7FEE7FEE7FEE777
:1001600047020008310100080CB500200190009002
:100170006C48006840F480306A49086000BF6948F4
:10018000006800F4003000900198401C0190009835
:1001900018B90198B0F5A06FF1D16248006800F479
:1001A000003010B10120009001E000200090009884
:1001B000012843D15C48006840F010005A490860AB
:1001C0000846006820F0030008600846006840F018
:1001D0000200086053484068524948600846406839
:1001E00048600846406840F48060486008464068BF
:1001F00020F47C1048600846406840F4E8104860ED
:100200000846006840F08070086000BF45480068FC
:1002100000F000700028F9D04248406820F0030048
:10022000404948600846406840F00200486000BF0E
:100230003C48406800F00C000828F9D10CBD10B50E
:10024000FFF792FF10BD10B53648006840F001007E
:1002500034490860084640683449084031494860DC
:1002600008460068324908402E4908600846006880
:1002700020F4802008600846406820F4FE004860B2
:100280004FF41F008860FFF7DAFF4FF00060294944
:10029000086010BD10B5002100200022214B5B68D2
:1002A00003F00C0121B1042906D0082928D107E068
:1002B000214B224C236027E01F4B204C236023E07E
:1002C000184B5B6803F47010164B5B6803F48032C4
:1002D000022303EB904022B9194B4343174C236090
:1002E0000DE0104B5B6803F4003323B1144B434320
:1002F000124C236003E0104B4343104C236003E097
:100300000D4B0E4C236000BF00BF064B5B68C3F370
:1003100003130C4CE15C094B1B68CB40074C23607A
:1003200010BD000000100240002002400000FFF855
:10033000FFFFF6FE08ED00E000127A00000000204A
:1003400000093D000400002031490143314A116099
:10035000704770B5002100230F22C47804B32D4CE0
:10036000246804F4E064C4F5E064210AC1F10403E4
:10037000CA40447804FA03F1847814402143090107
:10038000254C0678A155047804F01F050124AC40E3
:1003900005786D11AD0005F1E025C5F8004109E0D3
:1003A000047804F01F050124AC401C4D067876113A
:1003B00045F8264070BD1A4A0A400243154B1B1FE0
:1003C0001A60704739B1134A121D12680243114B6B
:1003D0001B1D1A6006E00F4A121D126882430D4B66
:1003E0001B1D1A607047042808D14FF0E0210969ED
:1003F00041F004014FF0E022116107E04FF0E021ED
:10040000096921F004014FF0E022116170470000FA
:100410000000FA050CED00E000E400E080E100E0FF
:1004200080FFFF1F002044490860091D0860091D66
:100430000860091D086041483F4914310860704751
:1004400000213D498279002A3AD00A4612680368A1
:100450009A430B461A600A1D126803689A430B1DE3
:100460001A60027911440A6803681A430A60324A22
:100470000832126803689A432F4B08331A601A1D1A
:10048000126803689A432C4B0C331A604279102A85
:100490000ED11A1F126803681A43274B08331A60DB
:1004A0001A1D126803681A43234B0C331A600DE0BF
:1004B0002149427911440A6803681A430A6005E039
:1004C000027911440A6803689A430A607047002160
:1004D000016001710C214171002181717047164941
:1004E000103109680143144A103211607047014607
:1004F0000020114A143212680A400AB1012000E0BB
:10050000002070470C4914310860704701460020F4
:100510000022094B1B6803EA0102074B14331B68D6
:100520000B4013B10AB1012000E0002070470249DE
:10053000143108607047000000040140FFFF0F0005
:1005400010B50446CC48844208D10121042000F0B3
:100550002DFB0021042000F029FB46E0C74884421F
:1005600008D10121082000F021FB0021082000F023
:100570001DFB3AE0C248844208D10121102000F05E
:1005800015FB0021102000F011FB2EE0BD48844235
:1005900008D10121202000F009FB0021202000F0DB
:1005A00005FB22E0B848844208D10121402000F038
:1005B000FDFA0021402000F0F9FA16E0B348844229
:1005C00008D10121802000F0F1FA0021802000F004
:1005D000EDFA0AE0AE48844207D10121801500F00F
:1005E000E5FA0021A01500F0E1FA10BD10B50121D7
:1005F000084600F0DBFA0021012000F0D7FA10BD18
:100600002DE9F041024600250026002000230024A9
:10061000002791F803C00CF00F0591F803C00CF00F
:10062000100CBCF1000F03D091F802C04CEA050594
:1006300091F800C0BCF1000F31D0146800202BE00D
:100640004FF0010C0CFA00F3B1F800C00CEA0306FD
:100650009E4220D183004FF00F0C0CFA03F7BC43ED
:1006600005FA03FC4CEA040491F803C0BCF1280F1E
:1006700006D14FF0010C0CFA00FCC2F814C00AE0DD
:1006800091F803C0BCF1480F05D14FF0010C0CFAF2
:1006900000FCC2F810C0401C0828D1D31460B1F887
:1006A00000C0BCF1FF0F34DD546800202EE000F1E3
:1006B000080C4FF0010808FA0CF3B1F800C00CEA7E
:1006C00003069E4221D183004FF00F0C0CFA03F772
:1006D000BC4305FA03FC4CEA040491F803C0BCF1E6
:1006E000280F05D100F1080C08FA0CF8C2F81480A4
:1006F00091F803C0BCF1480F07D100F1080C4FF08E
:10070000010808FA0CF8C2F81080401C0828CED363
:100710005460BDE8F0814FF6FF71018002218170C5
:100720000421C17070470246002093680B400BB152
:10073000012000E0002070470146886880B27047C1
:1007400002460020D3680B400BB1012000E00020DE
:1007500070470146C86880B27047016170474161C7
:1007600070470AB1016100E041617047C1607047A4
:100770004FF480320A4382618161826182698269B9
:10078000704702460020434B18684FF680731840AC
:1007900040EA021008433F4B186070473E49C86169
:1007A0007047F0B50A46002300240021002500F020
:1007B0000046B6F1004F02D1364EF16901E0354EE8
:1007C0007168C0F3034583B200F44016B6F5401FCC
:1007D00008D121F070612F4E766826F070662D4F9B
:1007E0007E6012E000F48016B6F5801F06D1032665
:1007F00006FA05F4A14341F0706106E0460D3601AA
:1008000003FA06F6B14341F0706122B1460D36019C
:1008100003FA06F6314300F00046B6F1004F02D16C
:100820001C4EF16101E01B4E7160F0BD30B500223D
:100830008B071C0F0F2303FA04F2164B08338C109E
:1008400053F824309343134C08348D1044F825306A
:1008500023468C1053F824308C07240F00FA04F43C
:1008600023430C4C08348D1044F8253030BD0A4920
:10087000DC3108607047000000080140000C0140B6
:10088000001001400014014000180140001C01400C
:10089000002001400000014000002042DF480068C5
:1008A00040F00100DD49086008464068DC49084026
:1008B000DA49486008460068DA490840D7490860C4
:1008C0000846006820F4802008600846406820F44C
:1008D000FE0048604FF41F0088607047CF490968E8
:1008E00021F48031CD4A11601146096821F480213C
:1008F0001160B0F5803F03D0B0F5802F0ED106E037
:10090000C649096841F48031C44A116007E0C3490F
:10091000096841F4A021C14A116000E000BF00BF96
:10092000704710B501460022002300204A11012A19
:1009300002D1BA4C236806E0022A02D1B74C236ADE
:1009400001E0B64C636A01F01F02012494401C4090
:100950000CB1012000E0002010BD38B5002000904F
:100960000024002500BF3120FFF7DBFF054600987B
:10097000401C00900098B0F5A06F01D0002DF2D07F
:100980003120FFF7CEFF08B1012400E0002420460B
:1009900038BD01460020A14A106820F0F80040EA66
:1009A000C10010607047A0490860704702460020EF
:1009B0009A4B586820F47C1042EA01031843974B85
:1009C0005860704798490866704701460020934A6E
:1009D000506820F003000843506070478F4840681B
:1009E00000F00C007047014600208C4A506820F04F
:1009F000F00008435060704701460020874A506865
:100A000020F4E06008435060704701460020834AAC
:100A1000506820F4605040EAC1005060704729B12E
:100A20007E4A527A02437D4B5A7204E07B4A527AE4
:100A300082437A4B5A7270477B49D83108607047BD
:100A400001460020754A506820F440400843506039
:100A500070470021714A20321170704A82F82010CC
:100A6000012802D004280AD104E001216B4A203277
:100A7000117005E00521694A2032117000E000BFC5
:100A800000BF70476949086070476449096A0143BB
:100A9000624A11627047654944390860704730B551
:100AA00000210022002400235C4D6D6805F00C013C
:100AB00021B1042905D0082923D105E05C4D05604A
:100AC00022E05B4D05601FE0544D6D6805F4701227
:100AD000524D6D6805F48034022505EB92421CB935
:100AE000544D554305600BE04C4D6D6805F40035E1
:100AF0001DB1504D5543056002E04D4D5543056015
:100B000002E04B4D056000BF00BF444D6D6805F02D
:100B1000F0010909484D6B5C0568DD4045603F4DBB
:100B20006D6805F4E061090A434D6B5C4568DD4082
:100B300085603A4D6D6805F46051C90A3E4D6B5CA5
:100B40004568DD40C560354D6D6805F44041890B51
:100B50003A4D6B5CC568B5FBF3F5056130BD29B155
:100B60002E4A526902432D4B5A6104E02B4A5269C6
:100B700082432A4B5A61704729B1284A926902433D
:100B8000264B9A6104E0254A92698243234B9A617D
:100B9000704729B1214AD2690243204BDA6104E04F
:100BA0001E4AD26982431D4BDA61704729B11B4A44
:100BB000D2680243194BDA6004E0184AD2688243D3
:100BC000164BDA60704729B1144A12690243134B7D
:100BD0001A6104E0114A12698243104B1A6170478E
:100BE00012494039086070470F49C86470470B4983
:100BF000C87170470948406A40F0807007494862F0
:100C0000704701460020054A92680A400AB1012057
:100C100000E00020704701498872704700100240D0
:100C20000000FFF8FFFFF6FE00004242800442424F
:100C300000127A0000093D0014000020240000206A
:100C400010B50446FB48844209D101218803FFF70F
:100C5000ADFF00214FF48040FFF7A8FF32E0F648D7
:100C6000844209D101214804FFF7ADFF00214FF470
:100C70000030FFF7A8FF25E0F048844209D10121A8
:100C80008804FFF7A0FF00214FF48020FFF79BFFAF
:100C900018E0EB48844209D10121C804FFF793FF13
:100CA00000214FF40020FFF78EFF0BE0E54884425F
:100CB00008D101210805FFF786FF00214FF48010BD
:100CC000FFF781FF10BD2DE9F04786B005460E46BF
:100CD0000024A24600BFA1460027B08900B100BF92
:100CE0002F462C8A4CF6FF700440F08804432C8277
:100CF000AC894EF6F3100440B088318908437189FD
:100D000008430443AC81AC8A4FF6FF400440B089ED
:100D10000443AC8201A8FFF7C2FEC648874202D155
:100D2000DDF810A001E0DDF80CA0A88900F4004077
:100D300040B10AEBCA0000EB0A1031684900B0FB71
:100D4000F1F807E00AEBCA0000EB0A1031688900ED
:100D5000B0FBF1F86420B8FBF0F004012009642135
:100D600001FB1089A88900F4004040B1322000EB5B
:100D7000C900B0FBF1F000F00700044308E03220A6
:100D800000EB09106421B0FBF1F000F00F00044308
:100D90002C8106B0BDE8F0874FF4165101600021A8
:100DA0008180C18001810C214181002181817047B6
:100DB00010B502460020108A4FF2FF0318400B883E
:100DC0004C8823438C882343CC88234318431082C8
:100DD00010BD0021018041808180C180704721B118
:100DE000828942F40052828104E082894DF6FF73C9
:100DF0001A4082817047F0B5034600240026002582
:100E0000002040F66A17B94200D100BF1846C1F36E
:100E1000421401F01F06012707FA06F5012C01D143
:100E20000C3004E0022C01D1103000E014301AB173
:100E300007682F43076002E00768AF430760F0BD13
:100E40001AB1838A0B43838202E0838A8B438382B5
:100E50007047028A4FF6F0731A400282028A0A43F0
:100E60000282704782894FF2FF731A408281828921
:100E70000A438281704721B1828942F00202828155
:100E800004E082894FF6FD731A4082817047028A1E
:100E90004FF6DF731A400282028A0A4302827047C9
:100EA00021B1028A42F48042028204E0028A4BF6B7
:100EB000FF731A4002827047C1F3080282807047B4
:100EC00001468888C0F308007047818941F001011C
:100ED00081817047028BD2B20283028B42EA0122E7
:100EE00002837047028B02F47F420283028B0A4323
:100EF0000283704721B1828A42F02002828204E09C
:100F0000828A4FF6DF731A408282704721B1828A4B
:100F100042F01002828204E0828A4FF6EF731A4098
:100F20008282704721B1828A42F00802828204E004
:100F3000828A4FF6F7731A408282704721B1828904
:100F400042F40042828103E08289C2F30E02828170
:100F5000704721B1828A42F40062828204E0828A70
:100F60004FF2FF731A4082827047828A4FF6FB73FA
:100F70001A408282828A0A438282704721B1828A21
:100F800042F00202828204E0828A4FF6FD731A4028
:100F90008282704702460020B1F5007F00D100BF79
:100FA00013880B400BB1012000E00020704701F4D2
:100FB0000072B2F5007F00D100BFCA4302807047C3
:100FC00070B50246002400230025002040F66A1672
:100FD000B14200D100BFC1F3421501F01F03012649
:100FE00006FA03F3012D02D19689334006E0022D63
:100FF00002D1168A334001E0968A33400C12012652
:1010000006FA04F41688344013B10CB1012000E054
:10101000002070BD10B50022002340F66A14A142E2
:1010200000D100BF0A1201249440A3B2DC43048023
:1010300010BD00000038014000440040004800405E
:10104000004C004000500040B2B00024642119A8B8
:1010500000F0EDFE6421684600F0E9FE0A2500F08C
:1010600099F900F00DFC00F0F3FA00F0C6FC00F076
:10107000A2FD00F03DFE01206D4908706DA16F4892
:1010800000F0FCFF01206E490870D0E0684800784D
:10109000012843D1694800783A283AD16748407816
:1010A000462836D165488078572809D100216548FF
:1010B0000078401E614A1154104600F069FB28E098
:1010C0005E488078412809D100215E480078401EA2
:1010D0005A4A1154104600F070FB1AE057488078C5
:1010E000432809D1002157480078401E534A115423
:1010F000104600F06FFB0CE050488078592808D16A
:1011000000F075FB00F09EFB4FA251A1514800F08A
:10111000B5FF00204649087000F02AFD48480078D5
:101120000128B2D14B4800783A287BD14948407811
:10113000462877D1474880782B282ED100F036FA00
:1011400010214548FFF709FB4248C01C00F08CFE07
:101150004249088007E041480188284600F063F9C9
:10116000044604B100E0F6E700BF10213A48FFF75B
:10117000F6FA3B480078012804D10020384908706D
:10118000384908803748028837A119A800F076FF4F
:1011900019A9374800F062FD44E02E4880782D28D8
:1011A0002ED100F014FA10212B48FFF7D6FA294867
:1011B000C01C00F059FE2949088007E02748018833
:1011C000284600F099F9044604B100E0F6E700BFB4
:1011D00010212148FFF7C3FA21480078012804D1E3
:1011E00000201F4908701F4908801E4802881EA160
:1011F00019A800F043FF19A91D4800F02FFD11E0C8
:101200001448807856280DD11248C01C00F02CFEDE
:1012100085B22A4617A1684600F030FF6946144897
:1012200000F01CFD00F04DFD0020054908702DE781
:101230002A0000203A465923000000003402002012
:101240002B000020C40100203A462B373235230002
:10125000257300003403002000080140280000200E
:101260002C0000202E0000203A46532564230A005B
:10127000004800403A46562564230A00704700BFE4
:10128000FEE700BFFEE700BFFEE700BFFEE77047D6
:101290007047704710B500F0FAF910BD10B540F274
:1012A00025513248FFF78CFE08B33048FFF708FE9F
:1012B000C4B22F480078FF280FDA2E482C4909784D
:1012C0004454002102462A480078401C1154284802
:1012D0000078401C2649087004E025480078401E2C
:1012E00024490C54232C02D101202349087010BD3D
:1012F00010B540F225512148FFF762FE18B31F4890
:10130000FFF7DEFDC4B21E48007840F2FF3188428C
:101310000FDA1C481A49097844540021024618483B
:101320000078401C115416480078401C144908707D
:1013300004E013480078401E12490C54232C02D1BB
:1013400001201149087010BD10B54FF40040FFF79F
:10135000DDF848B110210D48FFF701FA01200C49D2
:101360000870C003FFF7E3F810BD0000003801402B
:10137000C4010020340200202A0000200048004060
:10138000C5010020340300202B000020000801408C
:101390002C00002008B501210846FFF7EDFB0121D4
:1013A0009348FFF7FEF901210420FFF7E5FB042035
:1013B000ADF8000010208DF8030003208DF8020026
:1013C00069468C48FFF71CF90820ADF80000694613
:1013D0008848FFF715F91020ADF8000069468548E8
:1013E000FFF70EF904218348FFF7B7F90821814878
:1013F000FFF7B3F910217F48FFF7B1F908BD4FF4AB
:1014000080527D4B1A607047014600207B4A12884B
:101410008A4201DB012005E0784A1288521C774B92
:101420001A800020704770B504460D46002604213E
:101430007048FFF794F908216E48FFF790F94FF4D0
:101440007A7104FB01F000F010F92846FFF7DCFF89
:1014500010B10126304670BD04216648FFF77FF9C0
:1014600008216448FFF779F94FF47A7104FB01F021
:1014700000F0FBF82846FFF7C7FF10B10126304601
:10148000E9E704215B48FFF768F908215948FFF7AD
:1014900064F94FF47A7104FB01F000F0E6F8284695
:1014A000FFF7B2FF10B101263046D4E704215148BE
:1014B000FFF753F908214F48FFF751F94FF47A71BC
:1014C00004FB01F000F0D1F82846FFF79DFF10B1B2
:1014D00001263046BFE73046BDE701460020474AB7
:1014E00012888A4201DC012005E0444A1288521E1B
:1014F000424B1A800020704770B504460D46002606
:1015000004213C48FFF729F908213A48FFF727F959
:101510004FF47A7104FB01F000F0A7F82846FFF7BA
:10152000DCFF10B10126304670BD04213148FFF7C1
:1015300014F908212F48FFF710F94FF47A7104FBD2
:1015400001F000F092F82846FFF7C7FF10B101261E
:101550003046E9E704212748FFF701F9082125482B
:10156000FFF7FBF84FF47A7104FB01F000F07DF80F
:101570002846FFF7B2FF10B101263046D4E7042118
:101580001C48FFF7ECF808211A48FFF7E8F84FF479
:101590007A7104FB01F000F068F82846FFF79DFF20
:1015A00010B101263046BFE73046BDE710B5102127
:1015B0001048FFF7D4F804210E48FFF7D0F80821AF
:1015C0000C48FFF7CCF80E4800F04FF810BD10B5EE
:1015D00010210848FFF7C3F804210648FFF7BDF8BB
:1015E00008210448FFF7BBF8054800F03EF810BD9D
:1015F0000002300000080140140C01402E000020C1
:10160000400D030030B50146B1F1807F01D30120C8
:1016100030BD21F07F40401E4FF0E0225061501756
:101620000F22002807DA13071D0E3E4B00F00F04AF
:10163000241F1D5503E013071C0E3B4B1C5400BF19
:1016400000204FF0E0229061072010610020DFE7CA
:1016500010B5364800683649B0FBF1F42046FFF774
:10166000D1FF08B100BFFEE710BD01B531490098B8
:1016700008604FF0E020006940F001004FF0E021E9
:10168000086100BF2B4800680028FBD108BD29482D
:10169000006820B127480068401E2649086070474E
:1016A00031B5224800682249B0FBF1F52846FFF722
:1016B000A9FF002408E000BF4FF0E020006900F41B
:1016C00080300028F8D0641C00988442F3D34FF097
:1016D000E020006920F001004FF0E021086138BDF2
:1016E00031B5124800684FF47A71B0FBF1F5284625
:1016F000FFF788FF002408E000BF4FF0E0200069FA
:1017000000F480300028F8D0641C00988442F3D3A1
:101710004FF0E020006920F001004FF0E021086167
:1017200038BD000018ED00E000E400E000000020FB
:1017300040420F003000002010B504460BE0217835
:10174000664800F07CFA2178654800F09AF9052097
:10175000FFF78BFF641C20780028F0D10520FFF7ED
:1017600084FF0D215D4800F06AFA0D215C4800F00D
:1017700088F90520FFF779FF0A21584800F05FFA41
:101780000A21574800F07DF95648FFF76EFF10BD5B
:1017900038B50446E41C54A0234655A255A1009038
:1017A000584800F06BFC574A57A15B4800F066FCB4
:1017B00054495AA000F052FC38BD10B50446E41C50
:1017C00022465AA15B4800F059FC21465AA000F07D
:1017D00045FC10BD10B50446E41C224653A15D48EB
:1017E00000F04CFC5B495CA000F038FC10BD10B56B
:1017F000584B504A5DA1614800F040FC10BD70B5E7
:10180000054600240BE000F05CFA2846FFF794FF41
:101810005BA15C4800F016FB00B102E0641C032CE5
:10182000F1DB00BF70BD10B54FF480715648FEF774
:1018300096FF5648FFF719FF4FF480715248FEF7A4
:101840008CFF10BD10B5FFF7EEFF51A0FFF7D7FFDB
:1018500050A0FFF7D4FF51A0FFF7D1FF4748FFF793
:10186000CEFF51A0FFF7CBFF2B48FFF7C8FF51A0D9
:10187000FFF7C5FF53A0FFF7C2FF00F022FA10BD2B
:1018800008B501210846FFF777F901215048FEF716
:1018900088FF01210820FFF76FF94FF40070ADF8C1
:1018A000000010208DF8030003208DF80200694627
:1018B0003548FEF7A5FE4FF48070ADF8000069468C
:1018C0003148FEF79DFE4FF400712F48FEF745FFAB
:1018D0004FF480712C48FEF740FF08BD00480040DF
:1018E0000038014080841E0038303830000000008D
:1018F00054435000222573222C222573222C257359
:1019000000000000D001002041542B4349505354A3
:101910004152543D25730000340000206970202599
:1019200073206973206F6B210A0000002225732247
:1019300000000000980000207365742077696669D4
:10194000206E616D65202573206973206F6B210AFD
:1019500000000000FC00002073657420636F646564
:10196000202573206973206F6B210A0041542B439B
:10197000574A41503D25732C25730000600100201B
:101980004F4B000034030020000C014020A1070051
:101990004154000041542B525354000041542B43F6
:1019A000574D4F44453D310041542B4349504D550F
:1019B000583D300041542B4349504D4F44453D3133
:1019C0000000000041542B43495053454E44000051
:1019D0000002300008B54FF4A060FEF7B5FC2520EA
:1019E0008DF8000001208DF801008DF802008DF8BF
:1019F00003006846FEF7ADFC08BD00B585B00121C7
:101A00000420FFF7B9F801218803FFF7B5F84FF478
:101A10000070ADF8100018208DF8130003208DF829
:101A2000120004A95648FEF7EBFD4FF48060ADF8B4
:101A3000100004208DF8130004A95148FEF7E0FDC2
:101A40004FF4E13000900020ADF80400ADF806003E
:101A5000ADF80800ADF80C000C20ADF80A0069469E
:101A60004848FFF730F9FFF7B5FF012240F2255152
:101A70004448FFF7C0F901214248FFF7B0F905B02B
:101A800000BD70B504460D4629462046FFF714FAFE
:101A900000BF80212046FFF77DFA0028F9D070BDF5
:101AA0002DE9F04107460D461646002405E0295D64
:101AB0003846FFF7E6FF601CC4B2B442F7DB00BF54
:101AC00040213846FFF766FA0028F9D0BDE8F081DA
:101AD00070B506460C46002500BF615D3046FFF735
:101AE000D0FF6D1C605D0028F7D100BF402130465B
:101AF000FFF750FA0028F9D070BD2DE9F0410546F6
:101B00000C46260AE7B231462846FFF7D5F900BF52
:101B100080212846FFF73EFA0028F9D039462846AA
:101B2000FFF7CAF900BF80212846FFF733FA0028E3
:101B3000F9D0BDE8F08170B504460D46E1B2114818
:101B4000FFF7BAF900BF80210E48FFF723FA0028FB
:101B5000F9D0204670BD10B5044600BF20210948C9
:101B6000FFF718FA0028F9D00648FFF7A9F910BDC9
:101B70000020054908700549034A127888547047C7
:101B80000008014000380140C40100203402002058
:101B900008B54FF4A060FEF7D7FB27208DF80000B2
:101BA00001208DF801008DF802008DF803006846D1
:101BB000FEF7CFFB08BD00B585B001210820FEF778
:101BC000DBFF01218804FEF7E4FF4FF48060ADF8ED
:101BD000100018208DF8130003208DF8120004A9BE
:101BE0003C48FEF70DFD4FF40060ADF810000420F6
:101BF0008DF8130004A93748FEF702FD4FF4E130D9
:101C000000900020ADF80400ADF80600ADF8080023
:101C1000ADF80C000C20ADF80A0069462E48FFF71D
:101C200052F8FFF7B5FF012240F225512A48FFF78D
:101C3000E2F801212848FFF7D2F805B000BD70B5E1
:101C400004460D4629462046FFF736F900BF80219D
:101C50002046FFF79FF90028F9D070BD70B5064601
:101C60000C46002500BF615D3046FFF7E8FF6D1CA4
:101C7000605D0028F7D100BF40213046FFF78AF9A8
:101C80000028F9D070BD2DE9F04105460C46260A22
:101C9000E7B231462846FFF70FF900BF80212846FA
:101CA000FFF778F90028F9D039462846FFF704F9FC
:101CB00000BF80212846FFF76DF90028F9D0BDE864
:101CC000F0810020054908700549044A12788854BB
:101CD00070470000000C014000480040C501002092
:101CE0003403002010B54FF4A060FEF72DFB10BDAB
:101CF0001FB501210520FEF73FFF01214548FEF7F2
:101D000050FDFFF7EFFF0120ADF80C0048208DF8E3
:101D10000F0003A94048FEF773FC00210846FEF7B8
:101D200085FD0120019000208DF808000C208DF821
:101D3000090001208DF80A0001A8FEF781FB0620AA
:101D40008DF8000002208DF8010001208DF80200BE
:101D50008DF803006846FEF7FCFA01211120FEF71A
:101D60000BFF2020ADF80C0048208DF80F0003A9D0
:101D70002A48FEF745FC05210220FEF757FD2020EA
:101D8000019000208DF808000C208DF8090001203A
:101D90008DF80A0001A8FEF753FB17208DF800000C
:101DA00002208DF8010001208DF802008DF803005B
:101DB0006846FEF7CEFA4FF40040ADF80C0048201C
:101DC0008DF80F0003A91448FEF71AFC0F2100201C
:101DD000FEF72CFD4FF40040019000208DF8080024
:101DE0000C208DF8090001208DF80A0001A8FEF7EB
:101DF00027FB28208DF8000002208DF8010000202C
:101E00008DF8020001208DF803006846FEF7A1FA64
:101E10001FBD00000002300000080140001001401A
:101E2000D2B201E000F8012B491EFBD2704700221C
:101E3000F6E710B513460A4604461946FFF7F0FFC9
:101E4000204610BD30B505462A460B4612F8010B58
:101E500013F8014B08B1A042F8D01CB1002802D001
:101E60006D1CF1E7284630BD70B5064600F01AF942
:101E7000046805460A220021304600F018F82C605C
:101E800070BD30B50B46014600202022012409E038
:101E900021FA02F59D4205D303FA02F5491B04FA23
:101EA00002F52844151EA2F10102F1DC30BD2DE936
:101EB000F04791460F4680460446002614F8015B21
:101EC0002DB100F03FF80068405DC007F6D12B2D22
:101ED00002D02D2D18D0641E4A463946204600F007
:101EE00035F827B13968A14201D1C7F800807105E2
:101EF0004FF002040BD54042002803DD00F0D2F879
:101F00000460A007BDE8F08746F48066E4E7002897
:101F1000F8DA00F0C7F804606FF00040F2E7000064
:101F2000064C074D06E0E06840F0010394E8070026
:101F300098471034AC42F6D3FEF7FEF8142300089D
:101F40003423000800487047102300082DE9F05F93
:101F500082460078002715468B460AF10104B946EF
:101F6000302801D09DB113E014F8010B0127782827
:101F700003D0582801D045B10AE00DB1102D07D18A
:101F80000027102514F8010B02E0082500E00A25BF
:101F90000026B0460EE005FB080005FB06F1012710
:101FA00001EB10461FFA80F8B6F5803F00D3B94622
:101FB00014F8010B294600F018F80028EBDABBF101
:101FC000000F05D00FB1641E00E05446CBF800406E
:101FD000B9F1000F06D000F065F802210160C81EBB
:101FE000BDE8F09F48EA0640FAE73A2800D23038C8
:101FF00020F02002412A01D3A2F13700884201D308
:102000004FF0FF30704770B58C1810F8015B15F079
:10201000070301D110F8013B2A1106D110F8012B5A
:1020200003E010F8016B01F8016B5B1EF9D12B077F
:1020300005D40023521E0DD401F8013BFAE710F835
:10204000013BCB1A921C03E013F8015B01F8015B22
:10205000521EF9D5A142D8D3002070BD0FB4054B54
:1020600010B503A9044A029800F030F810BC5DF8DE
:1020700014FB0000371B0008C80100200FB4084BF8
:1020800010B504A902AA039800F020F8044602A99A
:10209000002000F0F7F8204610BC5DF814FB0000AB
:1020A0008522000800487047CC01002002E008C8E3
:1020B000121F08C1002AFAD170477047002001E0C2
:1020C00001C1121F002AFBD1704700002DE9FF4F0C
:1020D0008BB09A460F460546002606E025280BD011
:1020E00052460D9990476D1C761C28780028F5D132
:1020F0000FB03046BDE8F08F0024A04601226049B1
:1021000000E0044315F8013F203B02FA03F00842C7
:10211000F7D128782E2817D115F8010F44F00404C0
:102120002A280ED06FF02F022878A0F1300109295B
:102130000AD808EB880102EB410100EB01086D1C95
:10214000F2E757F8048B6D1C287869283ED006DC2E
:102150000028CDD063280BD0642804D136E0732842
:1021600010D075284BD052460D999047761C85E0CB
:1021700017F8040B8DF8000000208DF80100E946E7
:10218000012003E057F8049B4FF0FF3061074FF048
:10219000000401D40AE0641C44450DDA8442FADBF1
:1021A00019F804100029F6D106E0641C8442FCDB17
:1021B00019F804100029F8D1264404E019F8010B9D
:1021C00052460D999047641EF8D257E001CF4FF068
:1021D0000A0B002802DA40422D2102E0210504D535
:1021E0002B218DF82410012103E0E10705D02021E7
:1021F000F7E70DF1200908910CE00021F9E701CF84
:102200004FF00A0BF9E75946FFF73BFE01F13002A8
:1022100009F8012D0028F6D1ADEB090000F1200BE3
:10222000600701D44FF00108D84502DDA8EB0B0090
:1022300000E000208046002406E009A85246005D28
:102240000D999047641C761C08988442F5DB04E0E5
:10225000302052460D999047761CB8F10001A8F144
:102260000108F5DC05E019F8010B52460D9990477D
:10227000761CBBF10001ABF1010BF4DC6D1C34E703
:10228000092801000A68531C0B6010707047004059
:102290004040404040404040414141414140404039
:1022A0004040404040404040404040404040400569
:1022B00002020202020202020202020202020220E0
:1022C00020202020202020202002020202020202E0
:1022D00090909090909010101010101010101010FE
:1022E0001010101010101010101002020202020242
:1022F000888888888888080808080808080808085E
:102300000808080808080808080802020202400035
:102310008F2200083423000800000020D0010000B4
:102320000620000898230008D0010020680900005A
:10233000BC2000081184A24A0468090102030406B3
:102340000708090C6910C50204060800283D41541D
:102350002B43495053544152543D22544350222C54
:10236000223139322E3136382E37352E3132352260
:102370002C38303830075E22796E616F2239640F55
:10238000573234363133356A480A41542B43574A61
:0823900041503DD10A5E2C749E
:0400000508000131BD
:00000001FF
